{
  "contractName": "BurgerShop",
  "abi": [
    {
      "inputs": [],
      "stateMutability": "nonpayable",
      "type": "constructor"
    },
    {
      "anonymous": false,
      "inputs": [
        {
          "indexed": true,
          "internalType": "address",
          "name": "_from",
          "type": "address"
        },
        {
          "indexed": false,
          "internalType": "uint256",
          "name": "cost",
          "type": "uint256"
        }
      ],
      "name": "BoughtBurger",
      "type": "event"
    },
    {
      "inputs": [],
      "name": "burgerShopStage",
      "outputs": [
        {
          "internalType": "enum BurgerShop.Stages",
          "name": "",
          "type": "uint8"
        }
      ],
      "stateMutability": "view",
      "type": "function"
    },
    {
      "inputs": [],
      "name": "cost",
      "outputs": [
        {
          "internalType": "uint256",
          "name": "",
          "type": "uint256"
        }
      ],
      "stateMutability": "view",
      "type": "function"
    },
    {
      "inputs": [],
      "name": "deluxCost",
      "outputs": [
        {
          "internalType": "uint256",
          "name": "",
          "type": "uint256"
        }
      ],
      "stateMutability": "view",
      "type": "function"
    },
    {
      "inputs": [],
      "name": "owner",
      "outputs": [
        {
          "internalType": "address",
          "name": "",
          "type": "address"
        }
      ],
      "stateMutability": "view",
      "type": "function"
    },
    {
      "inputs": [],
      "name": "paused",
      "outputs": [
        {
          "internalType": "bool",
          "name": "",
          "type": "bool"
        }
      ],
      "stateMutability": "view",
      "type": "function"
    },
    {
      "inputs": [
        {
          "internalType": "address",
          "name": "",
          "type": "address"
        }
      ],
      "name": "refundEligible",
      "outputs": [
        {
          "internalType": "uint256",
          "name": "",
          "type": "uint256"
        }
      ],
      "stateMutability": "view",
      "type": "function"
    },
    {
      "inputs": [],
      "name": "buyBurger",
      "outputs": [],
      "stateMutability": "payable",
      "type": "function"
    },
    {
      "inputs": [],
      "name": "buyDeluxBurger",
      "outputs": [],
      "stateMutability": "payable",
      "type": "function"
    },
    {
      "inputs": [
        {
          "internalType": "address",
          "name": "_to",
          "type": "address"
        },
        {
          "internalType": "uint256",
          "name": "_cost",
          "type": "uint256"
        }
      ],
      "name": "refund",
      "outputs": [],
      "stateMutability": "payable",
      "type": "function"
    },
    {
      "inputs": [],
      "name": "claimRefund",
      "outputs": [],
      "stateMutability": "payable",
      "type": "function"
    },
    {
      "inputs": [],
      "name": "contractFunds",
      "outputs": [
        {
          "internalType": "uint256",
          "name": "",
          "type": "uint256"
        }
      ],
      "stateMutability": "view",
      "type": "function"
    },
    {
      "inputs": [],
      "name": "madeBurger",
      "outputs": [],
      "stateMutability": "nonpayable",
      "type": "function"
    },
    {
      "inputs": [],
      "name": "pickupBurger",
      "outputs": [],
      "stateMutability": "nonpayable",
      "type": "function"
    },
    {
      "inputs": [
        {
          "internalType": "enum BurgerShop.Stages",
          "name": "_stage",
          "type": "uint8"
        }
      ],
      "name": "updateStage",
      "outputs": [],
      "stateMutability": "nonpayable",
      "type": "function"
    },
    {
      "inputs": [],
      "name": "withdraw",
      "outputs": [],
      "stateMutability": "payable",
      "type": "function"
    },
    {
      "inputs": [
        {
          "internalType": "uint256",
          "name": "_seed",
          "type": "uint256"
        }
      ],
      "name": "getRandomNum",
      "outputs": [
        {
          "internalType": "uint256",
          "name": "",
          "type": "uint256"
        }
      ],
      "stateMutability": "view",
      "type": "function"
    },
    {
      "inputs": [
        {
          "internalType": "bool",
          "name": "_state",
          "type": "bool"
        }
      ],
      "name": "pause",
      "outputs": [],
      "stateMutability": "nonpayable",
      "type": "function"
    }
  ],
  "bytecode": "0x60806040526702c68af0bb14000060015567058d15e1762800006002556000600460006101000a81548160ff0219169083151502179055506000600460016101000a81548160ff02191690836002811115610083577f4e487b7100000000000000000000000000000000000000000000000000000000600052602160045260246000fd5b021790555034801561009457600080fd5b50336000806101000a81548173ffffffffffffffffffffffffffffffffffffffff021916908373ffffffffffffffffffffffffffffffffffffffff1602179055506114e1806100e46000396000f3fe6080604052600436106100fe5760003560e01c8063b8e53ae711610095578063d1f22eef11610064578063d1f22eef1461028a578063de75b5ea146102c7578063e45dd66614610304578063eb1d1b911461032f578063fd44510014610339576100fe565b8063b8e53ae714610208578063bdcc778f14610231578063c06a56ba1461025c578063ce365cdf14610273576100fe565b80635c975abb116100d15780635c975abb1461017d5780638da5cb5b146101a8578063925b8148146101d3578063b5545a3c146101fe576100fe565b806302329a291461010357806313faede61461012c5780633ccfd60b14610157578063410085df14610161575b600080fd5b34801561010f57600080fd5b5061012a60048036038101906101259190610e1a565b610343565b005b34801561013857600080fd5b506101416103ee565b60405161014e9190611280565b60405180910390f35b61015f6103f4565b005b61017b60048036038101906101769190610dde565b61051c565b005b34801561018957600080fd5b50610192610697565b60405161019f919061116a565b60405180910390f35b3480156101b457600080fd5b506101bd6106aa565b6040516101ca919061114f565b60405180910390f35b3480156101df57600080fd5b506101e86106ce565b6040516101f59190611280565b60405180910390f35b6102066106d4565b005b34801561021457600080fd5b5061022f600480360381019061022a9190610e43565b61081b565b005b34801561023d57600080fd5b5061024661086e565b6040516102539190611280565b60405180910390f35b34801561026857600080fd5b50610271610876565b005b34801561027f57600080fd5b50610288610946565b005b34801561029657600080fd5b506102b160048036038101906102ac9190610e6c565b610a16565b6040516102be9190611280565b60405180910390f35b3480156102d357600080fd5b506102ee60048036038101906102e99190610db5565b610a68565b6040516102fb9190611280565b60405180910390f35b34801561031057600080fd5b50610319610a80565b6040516103269190611185565b60405180910390f35b610337610a93565b005b610341610bfa565b005b60008054906101000a900473ffffffffffffffffffffffffffffffffffffffff1673ffffffffffffffffffffffffffffffffffffffff163373ffffffffffffffffffffffffffffffffffffffff16146103d1576040517f08c379a00000000000000000000000000000000000000000000000000000000081526004016103c8906111e0565b60405180910390fd5b80600460006101000a81548160ff02191690831515021790555050565b60015481565b60008054906101000a900473ffffffffffffffffffffffffffffffffffffffff1673ffffffffffffffffffffffffffffffffffffffff163373ffffffffffffffffffffffffffffffffffffffff1614610482576040517f08c379a000000000000000000000000000000000000000000000000000000000815260040161047990611240565b60405180910390fd5b60008060009054906101000a900473ffffffffffffffffffffffffffffffffffffffff1673ffffffffffffffffffffffffffffffffffffffff16476040516104c99061110e565b60006040518083038185875af1925050503d8060008114610506576040519150601f19603f3d011682016040523d82523d6000602084013e61050b565b606091505b505090508061051957600080fd5b50565b60008054906101000a900473ffffffffffffffffffffffffffffffffffffffff1673ffffffffffffffffffffffffffffffffffffffff163373ffffffffffffffffffffffffffffffffffffffff16146105aa576040517f08c379a00000000000000000000000000000000000000000000000000000000081526004016105a1906111e0565b60405180910390fd5b6001548114806105bb575060025481145b6105fa576040517f08c379a00000000000000000000000000000000000000000000000000000000081526004016105f190611220565b60405180910390fd5b8047101561063d576040517f08c379a000000000000000000000000000000000000000000000000000000000815260040161063490611200565b60405180910390fd5b80600360008473ffffffffffffffffffffffffffffffffffffffff1673ffffffffffffffffffffffffffffffffffffffff168152602001908152602001600020600082825461068c91906112b7565b925050819055505050565b600460009054906101000a900460ff1681565b60008054906101000a900473ffffffffffffffffffffffffffffffffffffffff1681565b60025481565b6000600360003373ffffffffffffffffffffffffffffffffffffffff1673ffffffffffffffffffffffffffffffffffffffff168152602001908152602001600020549050600081141561075c576040517f08c379a0000000000000000000000000000000000000000000000000000000008152600401610753906111a0565b60405180910390fd5b6000600360003373ffffffffffffffffffffffffffffffffffffffff1673ffffffffffffffffffffffffffffffffffffffff1681526020019081526020016000208190555060003373ffffffffffffffffffffffffffffffffffffffff16826040516107c79061110e565b60006040518083038185875af1925050503d8060008114610804576040519150601f19603f3d011682016040523d82523d6000602084013e610809565b606091505b505090508061081757600080fd5b5050565b80600460016101000a81548160ff02191690836002811115610866577f4e487b7100000000000000000000000000000000000000000000000000000000600052602160045260246000fd5b021790555050565b600047905090565b60018060028111156108b1577f4e487b7100000000000000000000000000000000000000000000000000000000600052602160045260246000fd5b600460019054906101000a900460ff1660028111156108f9577f4e487b7100000000000000000000000000000000000000000000000000000000600052602160045260246000fd5b14610939576040517f08c379a0000000000000000000000000000000000000000000000000000000008152600401610930906111c0565b60405180910390fd5b610943600261081b565b50565b6002806002811115610981577f4e487b7100000000000000000000000000000000000000000000000000000000600052602160045260246000fd5b600460019054906101000a900460ff1660028111156109c9577f4e487b7100000000000000000000000000000000000000000000000000000000600052602160045260246000fd5b14610a09576040517f08c379a0000000000000000000000000000000000000000000000000000000008152600401610a00906111c0565b60405180910390fd5b610a13600061081b565b50565b6000806001600a4285604051602001610a30929190611123565b6040516020818303038152906040528051906020012060001c610a539190611384565b610a5d91906112b7565b905080915050919050565b60036020528060005260406000206000915090505481565b600460019054906101000a900460ff1681565b60025480341015610ad9576040517f08c379a0000000000000000000000000000000000000000000000000000000008152600401610ad090611260565b60405180910390fd5b6000806002811115610b14577f4e487b7100000000000000000000000000000000000000000000000000000000600052602160045260246000fd5b600460019054906101000a900460ff166002811115610b5c577f4e487b7100000000000000000000000000000000000000000000000000000000600052602160045260246000fd5b14610b9c576040517f08c379a0000000000000000000000000000000000000000000000000000000008152600401610b93906111c0565b60405180910390fd5b610ba6600161081b565b3373ffffffffffffffffffffffffffffffffffffffff167fc63d5e450f470dcc6536476b6fd78a0f261765ef92b25631875b0a35eaa095bf600254604051610bee9190611280565b60405180910390a25050565b60015480341015610c40576040517f08c379a0000000000000000000000000000000000000000000000000000000008152600401610c3790611260565b60405180910390fd5b6000806002811115610c7b577f4e487b7100000000000000000000000000000000000000000000000000000000600052602160045260246000fd5b600460019054906101000a900460ff166002811115610cc3577f4e487b7100000000000000000000000000000000000000000000000000000000600052602160045260246000fd5b14610d03576040517f08c379a0000000000000000000000000000000000000000000000000000000008152600401610cfa906111c0565b60405180910390fd5b610d0d600161081b565b3373ffffffffffffffffffffffffffffffffffffffff167fc63d5e450f470dcc6536476b6fd78a0f261765ef92b25631875b0a35eaa095bf600154604051610d559190611280565b60405180910390a25050565b600081359050610d7081611456565b92915050565b600081359050610d858161146d565b92915050565b600081359050610d9a81611484565b92915050565b600081359050610daf81611494565b92915050565b600060208284031215610dc757600080fd5b6000610dd584828501610d61565b91505092915050565b60008060408385031215610df157600080fd5b6000610dff85828601610d61565b9250506020610e1085828601610da0565b9150509250929050565b600060208284031215610e2c57600080fd5b6000610e3a84828501610d76565b91505092915050565b600060208284031215610e5557600080fd5b6000610e6384828501610d8b565b91505092915050565b600060208284031215610e7e57600080fd5b6000610e8c84828501610da0565b91505092915050565b610e9e8161130d565b82525050565b610ead8161131f565b82525050565b610ebc81611368565b82525050565b6000610ecf6018836112a6565b91507f4e6f7420617070726f76656420666f7220726566756e642e00000000000000006000830152602082019050919050565b6000610f0f6015836112a6565b91507f4e6f7420617420636f72726563742053746167652e00000000000000000000006000830152602082019050919050565b6000610f4f602a836112a6565b91507f4f6e6c7920636f6e7472616374206f776e65722063616e2063616c6c2074686960008301527f732066756e6374696f6e000000000000000000000000000000000000000000006020830152604082019050919050565b6000610fb56011836112a6565b91507f4e6f7420656e6f7567682066756e6473210000000000000000000000000000006000830152602082019050919050565b6000610ff56035836112a6565b91507f596f752063616e206f6e6c7920726566756e6420636f7374206f66207265677560008301527f6c6172206f7220636f7374206f662064656c75782e00000000000000000000006020830152604082019050919050565b600061105b60008361129b565b9150600082019050919050565b60006110756016836112a6565b91507f596f7520617265206e6f7420746865206f776e65722e000000000000000000006000830152602082019050919050565b60006110b56013836112a6565b91507f496e73756666696369656e742066756e64732e000000000000000000000000006000830152602082019050919050565b6110f18161135e565b82525050565b6111086111038261135e565b61137a565b82525050565b60006111198261104e565b9150819050919050565b600061112f82856110f7565b60208201915061113f82846110f7565b6020820191508190509392505050565b60006020820190506111646000830184610e95565b92915050565b600060208201905061117f6000830184610ea4565b92915050565b600060208201905061119a6000830184610eb3565b92915050565b600060208201905081810360008301526111b981610ec2565b9050919050565b600060208201905081810360008301526111d981610f02565b9050919050565b600060208201905081810360008301526111f981610f42565b9050919050565b6000602082019050818103600083015261121981610fa8565b9050919050565b6000602082019050818103600083015261123981610fe8565b9050919050565b6000602082019050818103600083015261125981611068565b9050919050565b60006020820190508181036000830152611279816110a8565b9050919050565b600060208201905061129560008301846110e8565b92915050565b600081905092915050565b600082825260208201905092915050565b60006112c28261135e565b91506112cd8361135e565b9250827fffffffffffffffffffffffffffffffffffffffffffffffffffffffffffffffff03821115611302576113016113b5565b5b828201905092915050565b60006113188261133e565b9050919050565b60008115159050919050565b600081905061133982611442565b919050565b600073ffffffffffffffffffffffffffffffffffffffff82169050919050565b6000819050919050565b60006113738261132b565b9050919050565b6000819050919050565b600061138f8261135e565b915061139a8361135e565b9250826113aa576113a96113e4565b5b828206905092915050565b7f4e487b7100000000000000000000000000000000000000000000000000000000600052601160045260246000fd5b7f4e487b7100000000000000000000000000000000000000000000000000000000600052601260045260246000fd5b7f4e487b7100000000000000000000000000000000000000000000000000000000600052602160045260246000fd5b6003811061145357611452611413565b5b50565b61145f8161130d565b811461146a57600080fd5b50565b6114768161131f565b811461148157600080fd5b50565b6003811061149157600080fd5b50565b61149d8161135e565b81146114a857600080fd5b5056fea26469706673582212206975df3e79f9f549e7b3cd4f1c72547021eac9c4f040a33cf4da536889d6d16a64736f6c63430008000033",
  "immutableReferences": {},
  "source": "\n// SPDX-License-Identifier: MIT\n\n// This is a practice tutorial. Not production ready. \n\n\npragma solidity >= 0.8.0 <0.9.0;\n\ncontract BurgerShop {\n    address public owner;\n    uint256 public cost = 0.2 ether;\n    uint256 public deluxCost = 0.4 ether;\n    mapping(address => uint256) public refundEligible;\n    bool public paused = false;\n    \n\n    event BoughtBurger(address indexed _from, uint256 cost);\n\n    // Remember stages are represented by integers - - see comments below\n    enum Stages {\n        readyToOrder, // 0\n        makeBurger, // 1\n        deliverBurger // 2\n    }\n    Stages public burgerShopStage = Stages.readyToOrder;\n\n    constructor() {\n        owner = msg.sender;\n    }\n\n    modifier shouldPay(uint256 _cost) {\n        require(msg.value >= _cost, \"Insufficient funds.\");\n        _;\n    }\n\n    modifier isAtStage(Stages _stage){\n        require(burgerShopStage == _stage, \"Not at correct Stage.\");\n        _;\n    }\n\n    modifier onlyOwner() {\n        require(msg.sender == owner, \"Only contract owner can call this function\");\n        _;\n    }\n\n    modifier notPaused() {\n        require(paused == false, \"Contract is paused.\");\n        _;\n    }\n    \n    function buyBurger() payable public shouldPay(cost) isAtStage(Stages.readyToOrder) {\n        updateStage(Stages.makeBurger);\n        emit BoughtBurger(msg.sender, cost);   \n    }\n\n    function buyDeluxBurger() payable public shouldPay(deluxCost) isAtStage(Stages.readyToOrder) {\n        updateStage(Stages.makeBurger);\n        emit BoughtBurger(msg.sender, deluxCost);\n    }\n\n    function refund(address _to, uint256 _cost) payable public onlyOwner() {\n        require(_cost == cost || _cost == deluxCost, \"You can only refund cost of regular or cost of delux.\");\n        require(address(this).balance >= _cost, \"Not enough funds!\");\n\n        refundEligible[_to] += _cost;\n    }\n\n    function claimRefund() payable public {\n        uint256 value = refundEligible[msg.sender]; // assign variable to represent amount available for refund\n        require(value != 0, \"Not approved for refund.\"); // check: that value is present\n        refundEligible[msg.sender] = 0; // effect: reset mapping value\n        (bool success, ) = payable(msg.sender).call{value: value}(\"\"); // interact: allow user to claim refund \n        require(success);\n    }\n\n    function contractFunds() public view returns(uint256) {\n        return address(this).balance;\n    }\n\n    function madeBurger() public isAtStage(Stages.makeBurger) {\n        updateStage(Stages.deliverBurger);\n    }\n\n    function pickupBurger() public isAtStage(Stages.deliverBurger) {\n        updateStage(Stages.readyToOrder);\n    }\n\n    function updateStage(Stages _stage) public {\n        burgerShopStage = _stage;\n    }\n\n    function withdraw() payable public {\n        require(msg.sender == owner, \"You are not the owner.\");\n        (bool success, ) = payable(owner).call{value: address(this).balance}(\"\");\n        require(success);\n        \n    }\n\n    // This is not a reliable random number pattern because it's succeptable to miner manipulation, for theory practice only.\n    function getRandomNum(uint256 _seed) public view returns(uint256) {\n        uint256 randNum = uint256(keccak256(abi.encodePacked(block.timestamp, _seed))) % 10 + 1;\n        return randNum;\n    }\n\n    function pause(bool _state) public onlyOwner {\n        paused = _state;\n    }\n}\n",
  "sourcePath": "/Users/scottpayne/Desktop/DEV/Burger-Shop/contracts/BurgerShop.sol",
  "compiler": {
    "name": "solc",
    "version": "0.8.0+commit.c7dfd78e.Emscripten.clang"
  },
  "schemaVersion": "3.2.3",
  "updatedAt": "2021-12-08T17:08:20.839Z",
  "devdoc": {
    "kind": "dev",
    "methods": {},
    "version": 1
  },
  "userdoc": {
    "kind": "user",
    "methods": {},
    "version": 1
  }
}